:10000000DBEF04F044656E74726F202566200A25CC
:10001000344C752025640000466F72612020202535
:1000200066200A25344C7520256400000000EA6A29
:10003000270EE96EEF500DE0020E016E006A002EF1
:10004000FED7012EFBD7970E006E002EFED7EF2EA7
:10005000F3D71200C19CC28CC28EC18EC280C180F7
:10006000C192C184C196000E016EC250C70B01102F
:10007000C26EF3EF04F08E0E006E2650005E27C0B5
:1000800002F028C001F0028E005209E0D89002521E
:1000900002E1015204E002320132002EF7D727AE0E
:1000A00005D0011E021E012AD8B4022A76EF00F004
:1000B000206A205009080DE3D8902034036A040F09
:1000C000E96E000E0320EA6EEC6AED52EF6A202A18
:1000D000F0D7256A246A236A226A25C029F024C041
:1000E00028F023C027F022C026F0C5D701C021F098
:1000F0001F6A21C01EF01FC01DF01EC01CF01B6A2D
:100100001A6A1BC019F01AC018F0F5EF04F08E0E31
:10011000006E33C001F032C002F0036A015209E1FF
:1001200002C001F0026A080E005E015202E1006A9C
:1001300008D0D89001BE04D0023601360006F9D7A7
:10014000019E12003250D8B4A5D03E6E3650D8B4BD
:10015000A1D03E5E05E37F0E3E26D8B09BD006D0F0
:10016000810E3E5ED8A096D0D8B494D03EC000F0A8
:10017000016A026A036A3D6A33C03CF03C8E34C0B7
:100180003BF035C03AF0190E3E6E39503A5E0DE242
:10019000010E3B5E0AE23C5E08E23D5E06E23D2A5D
:1001A0003C2A3B2A39503A2628D038503B5E12E28E
:1001B000010E3C5E0FE23D5E0DE23D2A3C2A3850C6
:1001C0003B2639503A2619E33B2A17E13C2A15E130
:1001D0003D2A13D0375080093C5E0EE2010E3D5E91
:1001E0000BE23D2A375080093C2638503B26E9E394
:1001F0003C2AE7E13D2AE5D703803E2E01D00BD013
:10020000D8903A363B363C363D36D89003360236E7
:1002100001363F36BAD73FA006D0D890013202321D
:1002200003323F3202D0000635E03FBE1ED0D890E8
:100230003A363B363C363D3639503A5E07E2010EDF
:100240003B5E04E23C5E02E23D5E1AE338503B5EF8
:1002500005E2010E3C5E02E23D5E12E3375080098A
:100260003C5E03E2010E3D5E0BE3032A09E1022A34
:1002700007E1012A05E1002A0DE0013202320332D2
:1002800033C03EF037503E1A3EAE02D0018E06D04B
:10029000019E04D0006A016A026A036AB9EF01F0A4
:1002A000D8902134036A040FE96E000E0320EA6E31
:1002B0002DC0ECFFED522CC0EFFF2DC01FF02CC065
:1002C0001EF02C501C262D501D22212A21500A08D8
:1002D0002EE1210604501C5E05501D5A1B6A040EB7
:1002E0001A6E020E1A24186E000E1B20196E206A58
:1002F000205009081CE318C0E9FF19C0EAFFECCF41
:1003000003F0ED52EFCF30F01BC0EAFF1AC0E9FF57
:1003100003C0ECFFED5230C0EFFF020E1A26D8B03A
:100320001B2A020E1826D8B0192A202AE1D71DC090
:1003300033F01CC032F0EBDE00C02EF001C02FF015
:1003400002C030F003C031F0336A21C032F0DFDE8A
:1003500031C035F030C034F02FC033F02EC032F051
:1003600003C039F002C038F001C037F000C036F0E9
:10037000E9D603C025F002C024F001C023F000C07C
:1003800022F022C000F023C001F024C002F025C0FA
:1003900003F016EF02F02FC036F03350361A36AEA7
:1003A00005D0D894D8902FBED8802FD02FC036F04B
:1003B00032C037F02E50375E06E036AE26D0D85029
:1003C000010AD86E22D033C037F02F50375E06E0D6
:1003D00036AE1BD0D850010AD86E17D034C037F0D3
:1003E0003050375E06E036AE10D0D850010AD86ED5
:1003F0000CD035C037F03150375E06E036AE05D050
:10040000D850010AD86E01D0D8902FEF02F0C284E4
:10041000C2B4FED7C4CF03F0C350FF082A6E030E48
:10042000C4542B6E2D6E2AC02CF03AD700C02AF08F
:1004300001C02BF002C02CF003C02DF029C031F018
:1004400028C030F027C02FF026C02EF003C035F0B2
:1004500002C034F001C033F000C032F09CD701E29A
:1004600003E1036A000E02D0036A010E016E03EF7E
:1004700005F022C000F023C001F024C002F025C026
:1004800003F012001E50016E1FC002F01200215036
:10049000016E12000900F6CF2EF0F7CF2FF0F550C5
:1004A0009EA8FED7AD6E2EC0F6FF2FC0F7FF2D2EF3
:1004B000F1D712003A50D8B471D0006E3E50D8B483
:1004C0006DD0002604E3810E002668E204D07F0E82
:1004D000005E64E363E03BC042F03F50421A3B8E53
:1004E0003F8E3D504102F4CF44F03C504002F4CFE7
:1004F00003F0F3CF43F04102F3504426F45043227B
:10050000000E03223D504002F3504426F450432293
:10051000000E026A032202223B504102F35043269E
:10052000F4500322000E02223B504002F3500326F7
:10053000F4500222000E016A01223D503F02F350A6
:100540004326F4500322000E022201223C503F02B7
:10055000F3500326F4500222000E01223B503F02CA
:10056000F3500226F4500122002A01BE05D0433682
:100570000336023601360006000E43AE0AD0032AC7
:1005800002220122015005E1025003E1035001E182
:10059000002A42BE018E42AE019E04D0006A016A6A
:1005A000026A036A4FEF03F03A50B6083A6E036AE4
:1005B0003BC03EF03B8ED8903B323C323D32033262
:1005C0000232013200323A2EF6D73EAE0BD0001E78
:1005D000011E021E031E002AD8B4012AD8B4022A22
:1005E000D8B4032A62EF03F0D8B203D0EA6A420E0D
:1005F000E96E006A016A026A036A426A436A446AEF
:10060000456A415040103F103E102CE0200E466ECF
:10061000D8903A363B363C363D3642364336443641
:1006200045364150455C08E14050445C05E13F508F
:10063000435C02E13E50425C0FE33E50425E3F505D
:10064000D8A03F3C435E4050D8A0403C445E41505F
:10065000D8A0413C455ED8800036013602360336CC
:10066000462ED6D742C0EFFF43C0ECFF44C0ECFF9C
:1006700045C0ECFF1200E950326E3150346E19E083
:1006800030C03DF02FC03CF02EC03BF02DC03AF002
:10069000416A406A200E3F6E820E3E6E0BD703C049
:1006A00030F002C02FF001C02EF000C02DF0342E2B
:1006B000E7D730C03DF02FC03CF02EC03BF02DC03E
:1006C0003AF072D703C030F002C02FF001C02EF014
:1006D00000C02DF030AE0DD03206328A2D1E2E1EF7
:1006E0002F1E301E2D2AD8B42E2AD8B42F2AD8B4C3
:1006F000302A3B0E396E9A0E386ECA0E376E366A45
:100700000A0E346E3150D8B4322AD882EA6A2D0EDD
:10071000E96E30C03DF02FC03CF02EC03BF02DC044
:100720003AF039C041F038C040F037C03FF036C031
:100730003EF05ADF015000520FE13128345C0CE0EA
:1007400032500CE00F0B345C01E03BE232BE39D09A
:1007500032BC04D0200E30D0200E321632AA0DD07A
:10076000329A3150D8A432060050326E2D0E9EA817
:10077000FED7AD6E3250006E326A3150345C0BE100
:100780000050326E2E0E9EA8FED7AD6E3250006E17
:10079000200E3216000E300E32AA0ED0329A315090
:1007A000D8A432060050326E2D0E9EA8FED7AD6E34
:1007B0003250006E326A300E002600509EA8FED7DE
:1007C000AD6ED89239C03DF038C03CF037C03BF038
:1007D00036C03AF0416A406A3F6A0A0E3E6E04DF54
:1007E00003C039F002C038F001C037F000C036F065
:1007F000342E8BD71200EACF35F0E9CF34F02E3803
:10080000F009306E3026E20F316E320F336E2E500B
:100810000F0B312631263326E90F326E322632266F
:100820002D380F0B3226332632363336331E33360D
:100830002D500F0B33263036070E2F6E0A0E320660
:100840003326FDE331063226FDE330063126FDE393
:100850002F063026FDE3EA6A2F0EE96E070E3414E8
:10086000349CE926330EE95CD8B4348CEF50006E2A
:1008700008E134BC06D034B80CD034B602D0200E17
:1008800003D034863498300E002600509EA8FED740
:10089000AD6EEE5034ACE6D712003450016A335CD2
:1008A00003E233C000F00CD0006A080E356E333618
:1008B00000363450005CD8B0006E0136352EF7D7C4
:1008C0001200200E2EA8300E2F6E2DC000F02DAE7F
:1008D00007D0001E002A00C02DF02D0E2F6E2E8E88
:1008E00001502DC033F0640E346ED7DF00C02DF000
:1008F000300E0124306E2DC033F00A0E346ECDDF81
:10090000300E0024326E300E0124316E2FC000F004
:100910002EA602D02EAE2E942EB80BD02EAE22D004
:100920002EB420D000C030F02EB21CD000C031F068
:1009300019D0300E305C16E100C030F0200E2F6E62
:100940002EA604D02E942E822EAE2E92300E315C26
:1009500009E100C031F0200E306E2EA6F7D72E929E
:100960002EAE2E902EA404D02F509EA8FED7AD6E92
:100970002EA204D030509EA8FED7AD6E2EA004D07B
:1009800031509EA8FED7AD6E32509EA8FED7AD6EF8
:1009900012000900F5520DE0F6CF26F0F7CF27F050
:1009A000F5509EA8FED7AD6E26C0F6FF27C0F7FF14
:1009B000F0D785EF05F0F86AD09EEA6AE96A0C0E76
:1009C000AF6EA20EAC6E900EAB6EC180C182C184C0
:1009D000C196020E266EFA0E276E17EC00F0262E38
:1009E000FAD72AEF00F058EF00F0020E266E960EAE
:1009F000276E17EC00F0262EFAD7296A286A276A94
:100A0000880E266E04D501523EE033DD00C026F08C
:100A100001C027F002C028F003C029F033DD02C076
:100A20002BF001C02AF033DD01C02CF0040EF66E6D
:100A3000000EF76E070E2D6E2DDD890EE96E29C0B2
:100A400030F028C02FF027C02EF026C02DF0020E67
:100A5000316E11DE200E9EA8FED7AD6E0A0E9EA846
:100A6000FED7AD6E010EE96E2BC02EF02AC02DF020
:100A7000C2DE200E9EA8FED7AD6E2CC02DF01F0E3C
:100A80002E6E1FDF3DD0F5DC00C026F001C027F040
:100A900002C028F003C029F0F5DC02C02BF001C031
:100AA0002AF0F5DC01C02CF0180EF66E000EF76E81
:100AB000070E2D6EEFDC890EE96E29C030F028C0DC
:100AC0002FF027C02EF026C02DF0020E316ED3DDA0
:100AD000200E9EA8FED7AD6E0A0E9EA8FED7AD6E64
:100AE000010EE96E2BC02EF02AC02DF084DE200E00
:100AF0009EA8FED7AD6E2CC02DF01F0E2E6EE1DE2F
:100B00002C0EF66E000EF76E44D70D0E9EA8FED783
:100B1000AD6E0A0E9EA8FED7AD6E67D7000E016EB1
:020B20000300D0
:020000040030CA
:0E00000000220D0E000180000FC00FE00F4027
:00000001FF
;PIC18F452
;CRC=AC40  CREATED="16-out-12 11:15"
